:020000040000fa
:080000000002040000000000f2
:020000040000fa
:100400000ff22300ce0024000e018800000000003f
:100410000c000700407121000100200011000700be
:10042000000020000000e000020032000000020096
:100430000000000076160200000000000040da0014
:100440000000fe004440a900002020000000e00061
:100450000300320000002000a00188004440a800f2
:100460000000060091018800800078000000eb0089
:1004700015003700e280400032a0b4009101ba00bc
:10048000e280400032a0b4009102ba00e280400055
:1004900032a0b4000002eb00472bde00f507b200eb
:1004a000602ce10004003a000059eb008301e900f0
:1004b000fdff3e00040037006128e100010032002a
:1004c0000082eb00040007001101ba000200e00006
:1004d000e8ff3a00000006003159ba008301e90044
:1004e0000c0032002159ba008301e90008003200f3
:1004f0000400e00003003a00e280400032a0b400b3
:10050000f5ff370011d9ba008301e900faff3a007c
:100510008100e800e180400032a0b4000000060045
:020000040000fa
:0200000401f009
:04000000ffff0000fe
:020000040000fa
:0200000401f009
:04000400ffff0000fa
:020000040000fa
:0200000401f009
:04000800ffff0000f6
:020000040000fa
:0200000401f009
:04000c00fbff0000f6
:020000040000fa
:0200000401f009
:0400100078ff000075
:020000040000fa
:0200000401f009
:0400140026ff0000c3
:020000040000fa
:0200000401f009
:04001800ffff0000e6
:020000040000fa
:0200000401f009
:04001c00dfff000002
:020000040000fa
:100008004e170000d8160000de160000e4160000a7
:10001800ea160000f01600004e1700004e17000008
:100028004e1700004e1700004e1700009e080000f3
:100038003c1300004e1700004e170000420c000051
:100048004e1700004e1700004e1700004e17000014
:100058004e1700004e170000341300004e17000022
:100068004e1700004e1700004e1700004e170000f4
:100078004e1700004e1700004e1700004e170000e4
:100088004e1700004e1700004e1700004e170000d4
:100098004e1700004e1700004e1700004e170000c4
:1000a8004e1700004e1700004e1700004e170000b4
:1000b8004e1700004e1700004e1700004e170000a4
:1000c8004e1700004e1700004e1700004e17000094
:1000d8004e1700004e1700004e1700004e17000084
:1000e8004e1700004e1700004e1700004e17000074
:1000f8004e1700004e1700004e1700004e17000064
:100108004e1700004e1700004e1700004e17000053
:100118004e1700004e1700004e1700004e17000043
:100128004e1700004e1700004e1700004e17000033
:100138004e1700004e1700004e1700004e17000023
:100148004e1700004e1700004e1700004e17000013
:100158004e1700004e1700004e1700004e17000003
:100168004e1700004e1700004e1700004e170000f3
:100178004e1700004e1700004e1700004e170000e3
:100188004e1700004e1700004e1700004e170000d3
:100198004e1700004e1700004e1700004e170000c3
:1001a8004e1700004e1700004e1700004e170000b3
:1001b8004e1700004e1700004e1700004e170000a3
:1001c8004e1700004e1700004e1700004e17000093
:1001d8004e1700004e1700004e1700004e17000083
:1001e8004e1700004e1700004e1700004e17000073
:0801f8004e1700004e17000035
:020000040000fa
:100208004e170000f6160000fc160000021700004a
:10021800081700000e1700004e1700004e170000c8
:100228004e1700004e1700004e1700009e080000f1
:100238003c1300004e1700004e170000420c00004f
:100248004e1700004e1700004e1700004e17000012
:100258004e1700004e170000341300004e17000020
:100268004e1700004e1700004e1700004e170000f2
:100278004e1700004e1700004e1700004e170000e2
:100288004e1700004e1700004e1700004e170000d2
:100298004e1700004e1700004e1700004e170000c2
:1002a8004e1700004e1700004e1700004e170000b2
:1002b8004e1700004e1700004e1700004e170000a2
:1002c8004e1700004e1700004e1700004e17000092
:1002d8004e1700004e1700004e1700004e17000082
:1002e8004e1700004e1700004e1700004e17000072
:1002f8004e1700004e1700004e1700004e17000062
:100308004e1700004e1700004e1700004e17000051
:100318004e1700004e1700004e1700004e17000041
:100328004e1700004e1700004e1700004e17000031
:100338004e1700004e1700004e1700004e17000021
:100348004e1700004e1700004e1700004e17000011
:100358004e1700004e1700004e1700004e17000001
:100368004e1700004e1700004e1700004e170000f1
:100378004e1700004e1700004e1700004e170000e1
:100388004e1700004e1700004e1700004e170000d1
:100398004e1700004e1700004e1700004e170000c1
:1003a8004e1700004e1700004e1700004e170000b1
:1003b8004e1700004e1700004e1700004e170000a1
:1003c8004e1700004e1700004e1700004e17000091
:1003d8004e1700004e1700004e1700004e17000081
:1003e8004e1700004e1700004e1700004e17000071
:0803f8004e1700004e17000033
:020000040000fa
:100520000000000089110000122300009b3200002f
:1005300024460000ad57000036650000bf7400007f
:10054000488c0000c19d00005aaf0000d3be0000df
:100550006cca0000e5db00007ee90000f7f800004f
:100560008110000008010000933300001a220000ef
:10057000a55600002c470000b77500003e6400003f
:10058000c99c0000408d0000dbbf000052ae00009f
:10059000edda000064cb0000fff9000076e800000f
:1005a000022100008b3000001002000099130000af
:1005b00026670000af76000034440000bd550000ff
:1005c0004aad0000c3bc0000588e0000d19f00005f
:1005d0006eeb0000e7fa00007cc80000f5d90000cf
:1005e000833100000a20000091120000180300006f
:1005f000a77700002e660000b55400003c450000bf
:10060000cbbd000042ac0000d99e0000508f00001e
:10061000effb000066ea0000fdd8000074c900008e
:10062000044200008d530000166100009f7000001e
:1006300020040000a915000032270000bb3600008e
:100640004cce0000c5df00005eed0000d7fc0000ce
:1006500068880000e19900007aab0000f3ba00005e
:10066000855200000c430000977100001e600000de
:10067000a114000028050000b33700003a2600004e
:10068000cdde000044cf0000dffd000056ec00008e
:10069000e998000060890000fbbb000072aa00001e
:1006a000066300008f720000144000009d5100009e
:1006b00022250000ab34000030060000b91700000e
:1006c0004eef0000c7fe00005ccc0000d5dd00004e
:1006d0006aa90000e3b80000788a0000f19b0000de
:1006e000877300000e620000955000001c4100005e
:1006f000a33500002a240000b116000038070000ce
:10070000cfff000046ee0000dddc000054cd00000d
:10071000ebb9000062a80000f99a0000708b00009d
:1007200008840000819500001aa7000093b600001d
:100730002cc20000a5d300003ee10000b7f000008d
:1007400040080000c9190000522b0000db3a0000ed
:10075000644e0000ed5f0000766d0000ff7c00003d
:1007600089940000008500009bb7000012a60000dd
:10077000add2000024c30000bff1000036e000004d
:10078000c118000048090000d33b00005a2a0000ad
:10079000e55e00006c4f0000f77d00007e6c0000fd
:1007a0000aa5000083b4000018860000919700009d
:1007b0002ee30000a7f200003cc00000b5d100000d
:1007c00042290000cb380000500a0000d91b00006d
:1007d000666f0000ef7e0000744c0000fd5d0000bd
:1007e0008bb5000002a4000099960000108700005d
:1007f000aff3000026e20000bdd0000034c10000cd
:10080000c33900004a280000d11a0000580b00002c
:10081000e77f00006e6e0000f55c00007c4d00007c
:100820000cc6000085d700001ee5000097f400000c
:1008300028800000a19100003aa30000b3b200009c
:10084000444a0000cd5b000056690000df780000dc
:10085000600c0000e91d0000722f0000fb3e00004c
:100860008dd6000004c700009ff5000016e40000cc
:10087000a990000020810000bbb3000032a200005c
:10088000c55a00004c4b0000d77900005e6800009c
:10089000e11c0000680d0000f33f00007a2e00000c
:1008a0000ee7000087f600001cc4000095d500008c
:1008b0002aa10000a3b0000038820000b19300001c
:1008c000466b0000cf7a000054480000dd5900005c
:1008d000622d0000eb3c0000700e0000f91f0000cc
:1008e0008ff7000006e600009dd4000014c500004c
:1008f000abb1000022a00000b992000030830000dc
:10090000c77b00004e6a0000d55800005c4900001b
:10091000e33d00006a2c0000f11e0000780f00008b
:020000040000fa
:100920000000fa0040a7a8004460a800ffff3700bd
:100930001400fa0050079800610798009043800067
:10094000200798002e0090004500dd008000780010
:10095000c0892000808040005e0090001f000900d8
:10096000b05878000102b1000002b1006e009000a2
:100970000000e0000c003a002e009000c500dd00f1
:10098000c089200000804000104090008080fb0063
:1009900080438000808f500003003a000080eb000d
:1009a00070079800ea0037002e009000c500dd00b7
:1009b000c089200000804000104090000080fb00b3
:1009c000804388000000eb00c0f8890042c0bf00ef
:1009d0000080fb004500de000080fb00400798001f
:1009e0009002800010079800ff3ffc0021042000c7
:1009f0009140780000ceb30000c0700042e0b70024
:100a00001e00900090028800f043800001448000a6
:100a1000e0f78900f1f789000000eb0000f8890099
:100a20002e0090004500dd008080e800c089200095
:100a300000804000104078000080fb006101b90098
:100a40000080eb008080eb000201400083814800c1
:100a5000020f9800130f9800c00020000100200032
:100a60000e0990009e099000800f5100818f59005f
:100a7000a9003e000e0890009e0890000060010052
:100a80000c0037000d003700280037001000370039
:100a90001a003700280037000d00370051003700da
:100aa0006d003700910037005d0037009a00370075
:100ab0009800370018010700970037000000eb008e
:100ac00090f8890010002000b0f8890092003700eb
:100ad0002e0090000000e800021b20001100090019
:100ae0000200d8008000fd0090438800b0438000e1
:100af0000000e800b0438800870037002e00900017
:100b00000000e800021b2000110009000200d800cc
:100b10008000fd0090438800b04380000000e800a2
:100b2000b0438800fc0007007b0037001000200065
:100b3000a0f88900780037002e0090004500dd0005
:100b4000e4004000c0892000008040001001be0089
:100b50002000200001002000800f5100818f5900eb
:100b60006d003e002e0090004500dd008000780002
:100b7000c0892000008140002e0090004500dd006b
:100b8000e4004000c0892000008040001000be004a
:100b90004500dd0080007800c0e9230000804000af
:100ba0000f000900321878000002b1000202b10003
:100bb0002e0090004500dd00e4004000c0892000c8
:100bc000008040001001be00200020000100200035
:100bd000800f5100818f59004f003a005f000700dd
:100be0004d0037002e0090004500dd00e40040007d
:100bf000c08920000080400010007800d0438800a9
:100c00002e0090004500dd00e6004000c089200075
:100c10000080400010007800e04388003e0037006c
:100c20002e0090004500dd00e4004000c089200057
:100c3000008040001001be002e0090004500dd0045
:100c4000e8004000c0892000008040001000be0085
:100c50009b040700300037000000eb0030079800cd
:100c6000170037002e009000be0090004500dd0008
:100c700001004000ec004000c089200000804000de
:100c8000104090000081fb002e009000be009000fc
:100c90004500dd0001004000e4004000c089200064
:100ca00000804000104090000080fb00820078002f
:100cb000b30307003e0090000000e80030079800f2
:100cc0002e0090004500dd00e4004000c0892000b7
:100cd00000804000104078008080fb003e009000c3
:100ce000808f5000dfff3c000b0037002e0090008b
:100cf0004500dd00e4004000c08920000080400085
:100d0000a185200007000900b01878000001b1009b
:100d10000100370002ff070090028000000f7800fa
:100d2000ff3ffc004e00900067406000c500dd0002
:100d300042c0bf007f4060000140700042e0b70049
:100d40001e007800900288000001eb0072079800f6
:100d50007e0090000080fa00000006000200fa0009
:100d6000228920006000b8000089be0064014100b3
:100d70006000b8000089be00640141000000eb0083
:100d800000097800504380000000e00060003a0055
:100d9000604380000000e000010032005c0037008a
:100da000a0f58100000f78001e007800e10f5000d0
:100db000190032001e007800e10f500007003900d2
:100dc0001e007800e20f5000220032001e00780062
:100dd000e30f50002e0032004d003700a0852000a8
:100de000b044880010002000d044880040f5810005
:100df00051f58100e00f5000e08f580003003d00e6
:100e000010002000cd0307002f0037001000200045
:100e1000690307002c003700e0852000b0448800fb
:100e200020002000d044880040f5810051f5810069
:100e3000e00f5000e08f580003003d00300020001c
:100e4000be03070020003700300020005a030700cf
:100e50001d00370020862000b0448800400020009c
:100e6000d044880040f5810051f58100e00f50002a
:100e7000e08f580003003d0050002000af03070042
:100e800011003700500020004b0307000e00370010
:100e900060862000b044880080002000d044880094
:100ea00040f5810051f58100e00f5000e08f5800bf
:100eb00003003d0070002000a0030700020037007f
:100ec000700020003c03070040f5810051f58100cf
:100ed000e00f5000e08f580003003d00100020009c
:100ee000c0448800020037000000eb00c0448800c6
:100ef0000000eb00b0f889000000eb00a0f88900ca
:100f0000c0e923006043880010002000c04388002f
:100f10000080fa00000006000000fa005043800044
:100f20000000e0000f003a0091438000a0438000e1
:100f3000808f50000d003200a04380004500dd008e
:100f400080007800c0892000008040005043880065
:100f500017000700070007001000200090f8890024
:100f6000020037001000200090f889000080fa008d
:100f7000000006000000fa006000b800104488007d
:100f8000214488006000b800304488004144880053
:100f90006000b80050448800614488006000b800d8
:100fa00070448800814488000080fa000000060038
:100fb0000000fa005043800020409000e74f5000ae
:100fc0005c003200d2428000e34280005043800047
:100fd00040009000cf80de00020040008380480087
:100fe000d0428800e14288005043800040009000d9
:100ff0000000e00008003d005143800050438000a5
:10100000400090000000ea00c0009800100020009e
:101010004a0307000200370010002000e602070024
:10102000f242800003438000504380005000900053
:10103000cf80de000200400083804800f04288003c
:101040000143880050438000500090000000e00001
:1010500008003d0051438000504380005000900044
:101060000000ea00d00098003000200033030700a1
:101070000200370030002000cf020700124380003a
:10108000234380005043800060009000cf80de004a
:1010900002004000838048001043880021438800fc
:1010a00050438000600090000000e00008003d0018
:1010b0005143800050438000600090000000ea002f
:1010c000e0009800500020001c03070002003700d9
:1010d00050002000b80207003243800043438000e4
:1010e0005043800070009000cf80de00020040007e
:1010f000838048003043880041438800504380008b
:10110000700090000000e00008003d0051438000a6
:1011100050438000700090000000ea00e00098005a
:101120007000200005030700020037007000200057
:10113000a10207000080fa00000006003600f80057
:10114000809fbe00829fbe00849fbe00869fbe001f
:101150000000fa00c402a800c04380000000e000c4
:1011600002003200f000070001003700090007000c
:10117000c402a9008460a9000080fa004f03be00e9
:101180004f02be004f01be004f00be003600f90006
:10119000004006000600fa000000eb00200798005f
:1011a0008142800061806000004178000100e80019
:1011b000804288000204e000bc0032000000eb0026
:1011c000de02070020002000dc02070040002000b3
:1011d000da02070060002000d802070050438000b8
:1011e0000000e000ce00320050438000204090001c
:1011f000e74f500010003a0050438000d0009000ac
:1012000040009000e00f5000e08f58008200320054
:101210005243800042009000d200900061005000d4
:10122000e080580040019800510198001000200013
:10123000200798007800370050438000400090005d
:101240000000e0001a0032001044800021448000b9
:10125000008fbe0012448000234480005043800071
:101260009008900000089000020040008380480031
:1012700010448800214488001044800021448000ec
:10128000be0f5000ae8f5800070031009042800022
:101290000000a0009042880051438000410090006f
:1012a0000000e900c000980010002000200798000e
:1012b00050438000500090000000e0001a0032000f
:1012c0003044800041448000008fbe0032448000e2
:1012d0004344800050438000b008900020089000f4
:1012e0000200400083804800304488004144880068
:1012f0003044800041448000be0f5000ae8f580043
:1013000007003100904280000010a0009042880049
:1013100051438000510090000000e900d000980087
:1013200010002000200798005043800060009000cb
:101330000000e0001a003200504480006144800048
:10134000008fbe0052448000634480005043800000
:10135000d0089000400890000200400083804800c0
:1013600050448800614488005044800061448000fb
:10137000be0f5000ae8f5800070031009042800031
:101380000020a0009042880051438000610090003e
:101390000000e900e00098001000200020079800fd
:1013a00050438000700090000000e0001a003200fe
:1013b0007044800081448000008fbe007244800031
:1013c0008344800050438000f00890006008900043
:1013d00002004000838048007044880081448800f7
:1013e0007044800081448000be0f5000ae8f5800d2
:1013f00007003100904280000030a0009042880039
:1014000051438000710090000000e900f000980056
:1014100010002000200798002e0090000000e0003f
:101420003f003a0090f881000000e00005003a001b
:1014300090438000a04388000000eb0050438800e8
:1014400037003700b04380000000e900b043880057
:10145000a04380000000e800021b200011000900ea
:101460000280d8008000fd00a0438800a1438000d6
:1014700090438000808f500009003200a04380001c
:101480004500dd0080007800c08920000080400019
:1014900050438800c6fe0700b6fe07002000370054
:1014a0000000eb00504388001d0037009042800090
:1014b000610060000004e000020032000000eb0068
:1014c000bd010700904280000000d1006100600073
:1014d0000004e0000200320020002000b6010700f6
:1014e000904280004200de00610060000004e000e5
:1014f0000200320040002000af010700904280004f
:101500004300de00610060000004e00002003200e1
:1015100060002000a80107000000eb009042880056
:101520000080fa00000006000400fa00889fbe0058
:101530008a9fbe00a1428000618060000041780067
:101540000100e800a04288000204e000ac00320084
:101550000000eb00f901070020002000f701070060
:1015600040002000f501070060002000f3010700a3
:10157000b0f881000000e000050032000000eb0040
:10158000604388000000eb00c0438800b9003700ca
:10159000a0f881000000e000460032000000eb00ef
:1015a000a0f889006043800020019000b001900005
:1015b0001000200001002000800f5100818f590091
:1015c00006003a006000b80090448800a1448800fa
:1015d000c0ed230060438800360037006043800080
:1015e000b000900020009000e00f5000e08f580005
:1015f00030003a00c0ed230060438800644380005f
:101600006043800040019000d001900020f58100ef
:1016100031f581000000510081805900400298009e
:10162000510298006343800060438000000d9000e9
:10163000900d900060438000b0089000200890005a
:101640000004be0026f5810037f58100880078008f
:1016500006007800000ab80007c0b900050178004c
:101660000001410009b0b900000141008202780088
:101670000a0042008b804a00800998009109980076
:1016800060438000d000900040009000e00f5000c8
:10169000e08f580007003200604380004001900056
:1016a000d001900061015100e08159004200980092
:1016b0005300980060438000d000900040009000ec
:1016c000e00f5000e08f580034003200904480005a
:1016d000a1448000008fbe0092448000a34480009b
:1016e00060438000900890000008900002004000d5
:1016f0008380480090448800a14488009044800082
:10170000a1448000be0f5000ae8f58005900310038
:101710006243800042009000d200900061005000bf
:10172000e08058004001980051019800d0448000aa
:10173000b0428800c04480000000e0000600320093
:10174000b04480001001be0061015100e0815900e9
:101750000288be0005003700b04480001001be00c2
:1017600061014100e08149000288be0064438000bd
:101770006043800000099000900990006043800061
:10178000b0089000200890000200400083804800cc
:10179000000a9800110a9800360037006000b8006f
:1017a00090448800a144880060438000200190009c
:1017b000b00190001000200001002000800f5100b7
:1017c000818f590009003e0060438000b000900006
:1017d000200090004500dd0080007800c0eb230071
:1017e0000080400060438800220037000000eb00ca
:1017f000604388000000eb00c04388001d003700f4
:10180000b0428000610060000004e000020032008d
:101810000000eb00e8000700b04280000000d100ab
:10182000610060000004e00002003200200020009f
:10183000e1000700b04280004200de00610060006d
:101840000004e0000200320040002000da0007003f
:10185000b04280004300de00610060000004e00050
:101860000200320060002000d30007000000eb00ff
:10187000b04288004f05be004f04be000080fa0051
:10188000000006003600f800809fbe00829fbe0068
:10189000849fbe00869fbe000200fa000040eb005d
:1018a000004f780084e0a900f043800001448000ec
:1018b00061004000e0804800f04388000144880057
:1018c0001403070000f881000000e0000f003a0058
:1018d000f243800003448000e0f78100f1f78100cb
:1018e00000015100818159000019200001002000f1
:1018f000800f5100818f5900040036001000200035
:1019000000f8890010002000a0f88900cac2bf00ba
:101910000042b2000004e000010032001e04a000fa
:10192000cbc2bf00614060000004e0000100320053
:101930001e14a000cac2bf0001c8b300014060006d
:101940000004e000010032001e24a000cac2bf0053
:101950000044b2000004e000010032001e34a00088
:10196000cbc2bf00624060000004e0000200320011
:1019700000c2b3001e4f7000e08620001e487800b1
:10198000c04380000000e00014003200d04380001b
:101990000000e000110032009e80fb00d043800078
:1019a00080806000e0438000808f500009003a0092
:1019b000c04280000000e800c0428800c0428000b1
:1019c000e50f50000500340010002000b0f8890039
:1019d000020037000000eb00c0428800c0f8810020
:1019e0000000e00004003a007902070090012000a6
:1019f000c0f8890003003700c0f881000000e9004a
:101a0000c0f889000080fa004f03be004f02be00fc
:101a10004f01be004f00be003600f9000040060036
:101a20000000fa00a28520006000b8000089be0016
:101a3000640141006000b8000089be0064014100fb
:101a40006000b8000089be00640141006000b80079
:101a50000089be00a28620006000b8000089be0098
:101a6000640141006000b8000089be0064014100cb
:101a70006000b8000089be00640141006000b80049
:101a80000089be00640141006000b8000089be000a
:101a9000228820006000b8000089be006401410077
:101aa0006000b8000089be00640141006000b80019
:101ab0000089be00640141006000b8000089be00da
:101ac0000080eb00804388000000eb0020088800c5
:101ad0004110200091407800f0ccb30000c06000bd
:101ae00004e1b7000000eb00000888004006200079
:101af000100888008460a900510a200091407800f5
:101b0000f0c8b30000c0600001c5b3000140700020
:101b1000a5e0b7009460a80005e1a8000000eb0074
:101b200080088800011120009140780000c3b300b4
:101b300000c0700010e1b7000000eb003008880022
:101b4000e00420006008880084e0a900710a2000f9
:101b500091407800f0c8b30000c0600001c2b3003b
:101b600001407000a7e0b70094e0a80011e1a800d0
:101b70000000eb0000f889000080fa000000060079
:101b80000400fa00000f7800110798007000200090
:101b90009e0f100006003e001e00780080004000ee
:101ba00020f02300008040009e0090000108780093
:101bb0000080fa00000006000600fa00000f78001e
:101bc0001e0078008000400020f0230000804000cc
:101bd000100078006101b8000080eb008080eb000d
:101be00002014000838148001207980023079800f3
:101bf00070012000010020001e019000ae01900045
:101c0000800f5100818f59004a003e001e00900055
:101c1000ae00900000600100170037001800370088
:101c2000190037001a0037001b0037001c0037006e
:101c30001d0037001e0037001f003700200037004e
:101c4000210037002200370023003700240037002e
:101c5000250037002600370027003700280037000e
:101c6000290037002a0037002b0037002c003700ee
:101c70002d0037002e003700c402a8002d003700c9
:101c8000c402a9002b003700c422a8002900370095
:101c9000c422a90027003700cdc2a80025003700c4
:101ca000cdc2a90023003700cda2a8002100370033
:101cb000cda2a9001f003700cd62a8001d0037008b
:101cc000cd62a9001b003700cd42a80019003700e3
:101cd000cd42a90017003700c462a80015003700e4
:101ce000c462a90013003700cc82a800110037009d
:101cf000cc82a9000f003700c482a8000d00370075
:101d0000c482a9000b003700cde2a800090037000b
:101d1000cde2a90007003700cc22a800050037005b
:101d2000cc22a90003003700cd82a80001003700b3
:101d3000cd82a9000080fa00000006000600fa002b
:101d4000000f78001e0078008000400020f0230083
:101d500000804000100078006101b8000080eb00b6
:101d60008080eb0002014000838148001207980048
:101d70002307980070012000010020001e01900040
:101d8000ae019000800f5100818f59004a003e0043
:101d90001e009000ae0090000060010017003700a8
:101da00018003700190037001a0037001b003700f1
:101db0001c0037001d0037001e0037001f003700d1
:101dc00020003700210037002200370023003700b1
:101dd0002400370025003700260037002700370091
:101de00028003700290037002a0037002b00370071
:101df0002c0037002d0037002e003700c402a90048
:101e00002d003700c402a8002b003700c422a9000f
:101e100029003700c422a80027003700cdc2a9003e
:101e200025003700cdc2a80023003700cda2a900ad
:101e300021003700cda2a8001f003700cd62a90005
:101e40001d003700cd62a8001b003700cd42a9005d
:101e500019003700cd42a80017003700c462a9005e
:101e600015003700c462a80013003700cc82a90017
:101e700011003700cc82a8000f003700c482a900ef
:101e80000d003700c482a8000b003700cde2a90086
:101e900009003700cde2a80007003700cc22a900d6
:101ea00005003700cc22a80003003700cd82a9002e
:101eb00001003700cd82a8000080fa000000060073
:101ec0000800fa00008fbe00220798003307980030
:101ed0002e009000be009000610160006000b8001c
:101ee0000300200002007000838070000000e0000a
:101ef0000b0032001e007800610160006000b80035
:101f00000300200002007000838070000000e000e9
:101f100002003200c402a80001003700c402a90078
:101f20002e009000be0090008100d1000080d30000
:101f3000610060000004e000090032001e00be00e5
:101f40008100d1000080d300610060000004e00047
:101f500002003200c422a80001003700c422a900f8
:101f60002e009000be0090004e09dd004200de0011
:101f700000007100c208de00610060000004e000a3
:101f80000b0032001e00be004e09dd004200de00e4
:101f900000007100c208de00610060000004e00083
:101fa00002003200cdc2a80001003700cdc2a90056
:101fb0002e009000be0090004d09dd004300de00c1
:101fc00000007100c308de00610060000004e00052
:101fd0000b0032001e00be004d09dd004300de0094
:101fe00000007100c308de00610060000004e00032
:101ff00002003200cda2a80001003700cda2a90046
:102000002e009000be0090004c09dd004400de0070
:1020100000007100c408de00610060000004e00000
:102020000b0032001e00be004c09dd004400de0043
:1020300000007100c408de00610060000004e000e0
:1020400002003200cd62a80001003700cd62a90075
:102050002e009000be0090004b09dd004500de0020
:1020600000007100c508de00610060000004e000af
:102070000b0032001e00be004b09dd004500de00f3
:1020800000007100c508de00610060000004e0008f
:1020900002003200cd42a80001003700cd42a90065
:1020a0002e009000be0090004a09dd004600de00d0
:1020b00000007100c608de00610060000004e0005e
:1020c0000b0032001e00be004a09dd004600de00a3
:1020d00000007100c608de00610060000004e0003e
:1020e00002003200c462a80001003700c462a900e7
:1020f0002e009000be0090004909dd004700de0080
:1021000000007100c708de00610060000004e0000c
:102110000b0032001e00be004909dd004700de0052
:1021200000007100c708de00610060000004e000ec
:1021300002003200cc82a80001003700cc82a90046
:102140002e009000be0090004809dd004800de002f
:1021500000007100c808de00610060000004e000bb
:102160000b0032001e00be004809dd004800de0002
:1021700000007100c808de00610060000004e0009b
:1021800002003200c482a80001003700c482a90006
:102190002e009000be0090004309dd004d00de00df
:1021a00000007100cd08de00610060000004e00066
:1021b0000b0032001e00be004309dd004d00de00b2
:1021c00000007100cd08de00610060000004e00046
:1021d00002003200cde2a80001003700cde2a900e4
:1021e0002e009000be0090004109dd004f00de008f
:1021f00000007100cf08de00610060000004e00014
:102200000b0032001e00be004109dd004f00de0061
:1022100000007100cf08de00610060000004e000f3
:1022200002003200cc22a80001003700cc22a90015
:102230002e009000be0090004008de00010020004b
:10224000610060000004e000090032001e00be00d2
:102250004008de0001002000610060000004e00092
:1022600002003200cd82a80001003700cd82a90013
:102270000080fa00000006000000fa00c000200004
:10228000701c880040222000a01c8800c13820005b
:1022900091407800f0ccb30000c060008ce3b70040
:1022a000c138200091407800c0cfb30000c060006a
:1022b0000004a0008ce3b7008da3a8008dc3a80084
:1022c000c0012000801c8800f0012000b01c8800a4
:1022d00085c0a90095c0a800b0002000101c88008f
:1022e00060222000401c88000138200091407800c6
:1022f000f0ccb30000c0600080e3b70001382000dc
:1023000091407800c0cfb30000c060000004a0007e
:1023100080e3b70081a3a90081c3a800c003200007
:10232000201c8800407c2000501c88008480a9006c
:102330009480a80081e3a8000080fa000000060055
:102340000000fa002002a90001222000914078003c
:1023500090cfb30000c0600020e2b70020a2a90027
:102360002062a800400020004011880023a2a9009c
:1023700023e2a90022c2bf00f043b20022e2b7006c
:1023800021e2a8002342a8008560a9008580a90059
:10239000b9ff0700c1012400e0c3b3008048780002
:1023a000d101240000c2b30080487800e10124007c
:1023b00010c1b30080487800a103240030c2b300ec
:1023c000804878000000eb000080fa000000060062
:1023d0000600fa008dc3bf0001c8b30001406000d1
:1023e0000004e000fbff3a0042c0bf000080fb0099
:1023f0004500de000080fb0020079800900280006e
:1024000010079800ff3ffc00210420009140780055
:1024100000ceb30000c0700042e0b7001e00900084
:1024200090028800e086200090407800300224006e
:10243000014878008043800000018a00b143800099
:10244000001b2000010050000000d10080407800f7
:102450002002240001487800504380000000e00082
:1024600003003a00604380000000e00009003200f1
:1024700050438000b000900020009000a0018a002e
:10248000b1018a00f101240010c0b3008048780037
:10249000070037000080eb008080eb00a0018a007d
:1024a000b1018a00f10124000040eb00804878006f
:1024b00040022400a185200007000900311878009f
:1024c00090028000000f7800ff3ffc002e0090007b
:1024d00067406000c500dd0042c0bf007f40600073
:1024e0000140700042e0b7001e00780090028800b2
:1024f000c0012400c10120008e01070085c0a90091
:1025000095c0a8008de3a8008fe3a8000080fa0022
:10251000000006000800fa00f1f88100201c80008d
:10252000808f500004003a00c1032000201c80006e
:10253000808f500008003a00201c8000f0f88900cd
:1025400022c2bf00624060000004e000440032008c
:1025500081e3a90038003700211c8000c00320005f
:10256000008050003007980081e3a900be00900071
:1025700020022000808f50002f003600c00324006e
:1025800090407800c0c3b30080cf50002a003a00ca
:102590003e009000630050007f0060000000e000fb
:1025a00025003a003e0090000000e9006101b800fb
:1025b000d0032400340107000000e0001e003200b8
:1025c0003e009000630050004500de0010079800b8
:1025d000b1438000001b2000010f50001e0090003e
:1025e0009e0f5000140031000000eb0020079800ff
:1025f0000d0037002e0190002e0090004500dd00f8
:1026000080007800d0032400008040008200780021
:10261000c7f807000000e00007003a002e00900015
:102620000000e80020079800ae0090001e00900017
:10263000808f5000efff3900c0032000201c88006d
:10264000201c8000f0f88900407c2000501c88008d
:102650008480a9009480a8002222a90081e3a80018
:102660000080fa00000006000000fa0085c0a90002
:102670000080fa00004006000000fa008480a900f3
:102680000080fa00004006001200fa00500798008f
:102690006207980073079800010f98006e00900081
:1026a000fe00900030079800410798000000eb0002
:1026b000000f78002c003700be0090004e00900004
:1026c000a80107001007980021079800ae4090006d
:1026d0005e009000014878000e0890000000e900bc
:1026e000000f98000e0890000000e000210032006a
:1026f0005e0090008000e8003e4090008048780036
:102700000e0890000000e900000f98000e089000ed
:102710000000e000170032005e0090008080e800ba
:102720004e409000804878000e0890000000e900bc
:10273000000f98000e0890000000e0000d0032002d
:102740005e00900063004000500798003e0090003b
:10275000ce00900062004000e08048003007980002
:10276000410798001e0fe800f01f20009e0f100088
:10277000d1ff34000080fa00000006002200fa00b9
:10278000300f9800420f9800530f9800610f980087
:10279000740f9800ee08900000602000808f5000b9
:1027a000030032000080eb00001798007e00370025
:1027b0007e089000f003b0004600de004600dd0019
:1027c000000f78004e089000de089000100f98006f
:1027d000210f98009e0890002e08900022042400eb
:1027e000640107000000eb00200798000000eb00e8
:1027f00010079800670037009e0090007e08900048
:10280000808f5000070031001e009000800078008b
:102810003e0890000080400010407800604798001b
:10282000020037000040eb00604798001e00900057
:102830000000e800800078007e089000808f500043
:10284000070031009e0090003e089000008040008c
:102850000000e80010407800704798000200370040
:102860000040eb00704798001e0090000080e800d8
:10287000800078007e089000808f500007003100b3
:102880009e0090003e089000008040000080e8001c
:1028900010407800004f9800020037000040eb0025
:1028a000004f98000040eb00104f98001e00900071
:1028b00063004000100798003e0090004e01900019
:1028c0009e0890002e0a9000800178000400780095
:1028d000200107001e089000ae0890007f016000f4
:1028e0006000b800030020000200700083807000c8
:1028f0008201200003002000820f5000838f5800c7
:1029000008003a001e089000ae089000500798009a
:10291000610798003e009000ce009000700798007c
:10292000010f98002e0090000000e000100032001f
:102930002e0090000000e80080007800f0032000e6
:10294000008060000000e00009003a007e00900076
:102950000e099000de0090006e0290008001780069
:1029600004007800fb00070010002400ee000700c0
:102970001e089000ae08900062004000e080480011
:10298000100f9800210f98002e0090000000e80022
:10299000200798002e0090009e0f500096ff3900ef
:1029a0008000eb00011798000e1090000080fa00e4
:1029b000000006000400fa00004f7800110798009c
:1029c0001e009000100078004801de001e009000fc
:1029d000900078001e80fb0080806800f00f2000cf
:1029e0000080600080004000002928000080400036
:1029f00010007800800069001e0090000108780037
:102a00000080fa00000006000800fa001007980095
:102a100021079800320798000000eb00000f7800b3
:102a2000130037003e0090004801de001e007800d1
:102a3000800078001e009000008040001040780068
:102a40008080fb003e00900080806800f00f200036
:102a500000806000800040000029280000804000c5
:102a60001000780000006900300798001e0fe80091
:102a70002e0090009e0f1000eaff35003e009000ef
:102a80000080fa00000006000a00fa001007980013
:102a900022079800330798002e0090000080e9007c
:102aa000800078000081eb001e009000d6ff070038
:102ab000000f7800f00f20001e0160002e00900033
:102ac000800078001e009000008040000000e900b7
:102ad000104078000080fb00800f510010003a0089
:102ae0001e007800c800de00f00f200000816000aa
:102af0002e009000800078001e00900000804000b2
:102b00000080e900104078000080fb00800f510039
:102b100003003a0010002000400798000200370030
:102b20000000eb00400798004e0090000080fa0083
:102b3000000006000600fa00100798002107980020
:102b40000081eb00ae0090001e009000aeff070079
:102b5000000f78002e009000800078001e0090008a
:102b6000808040001e00780080487800ae00900011
:102b70001e009000008040008000e8001e007800e9
:102b80004800de00804878000080fa00000006005f
:102b90000000fa00e0072000303a880044c7bf0078
:102ba000f043b20001c4b3000140700044e7b70035
:102bb000417420009140780000ceb30000c0600056
:102bc0003040b30044e7b7005174200091407800d2
:102bd000f0c8b30000c0600045e7b7003200200035
:102be00081072000a009200033742000814978006b
:102bf000804978008249780012002000610420009a
:102c000070052000237420008149780080497800f5
:102c10008249780043c7bf0002c7b300824060000a
:102c200000c3b30080cf5000faff3a000080fa00e2
:102c3000000006000000fa00c842a800416a200017
:102c40009140780000ceb30000c060000014a000e6
:102c5000a4e6b700c802a800c8a2a800c8c2a8007d
:102c6000c8e2a800c902a800c922a8006aa0a8005a
:102c70006ac0a8006ae0a8006b00a8006b60a8000a
:102c8000c862a900316c20009140780000ceb300ea
:102c900000c060003040b300c3e6b700c002a90026
:102ca000c022a900c9c2a900c9a2a900c962a9007d
:102cb000c942a900c062a900c882a900c082a900b7
:102cc000c9e2a900c822a900c982a9000080eb00be
:102cd000601988000080fa00000006000000fa0079
:102ce00040a7a8004460a800ffff37000000fa00da
:102cf000a7ff0700cfff0700f2ff2f00030020000f
:102d00006000b8006efc070081e0a9008cfd0700a0
:102d100043fb07004460a900ffff370090018800d3
:102d20008100780000000600003b8800500520006c
:102d3000303b8800a00a2000303b880061e7a800f3
:102d4000000000000000000061e7af00feff370058
:102d500000000600900188008308bb008288bb0049
:102d600000000600900188001100ba009180ba00ae
:102d7000000006003200f800023b88009001880045
:102d80008108bb0050052000303b8800a00a2000cd
:102d9000303b880061e7a800000000000000000050
:102da00061e7af00feff37003200f90000000600c7
:102db0000000fa008020a900ffff37000000fa00a1
:102dc0008060a900ffff37000000fa008040a900e2
:102dd000ffff37000000fa008080a900ffff3700e6
:102de0000000fa0080a0a900ffff37000000fa00f1
:102df0008020a900ffff37000000fa008060a900d2
:102e0000ffff37000000fa008040a900ffff3700f5
:102e10000000fa008080a900ffff37000000fa00e0
:082e200080a0a900ffff3700ac
:020000040000fa
:102e2800023f00001000000002000000030005003f
:102e38000007000009000b00000d00000f00110042
:102e4800000000001e3f000002000000000000001b
:102e58001c40000020000000000000003c40000072
:102e6800c407000000000000123f00000c00000032
:102e7800020000000000000000000000190000002f
:102e88000000000050080000b236000000000000fa
:042e98000000000036
:020000040000fa
:082e9c000040da000000fe0016
:00000001FF
